{
  "contractName": "DappToken",
  "abi": [
    {
      "inputs": [
        {
          "internalType": "uint256",
          "name": "_initSupply",
          "type": "uint256"
        }
      ],
      "payable": false,
      "stateMutability": "nonpayable",
      "type": "constructor"
    },
    {
      "constant": true,
      "inputs": [
        {
          "internalType": "address",
          "name": "",
          "type": "address"
        }
      ],
      "name": "balanceOf",
      "outputs": [
        {
          "internalType": "uint256",
          "name": "",
          "type": "uint256"
        }
      ],
      "payable": false,
      "stateMutability": "view",
      "type": "function"
    },
    {
      "constant": true,
      "inputs": [],
      "name": "name",
      "outputs": [
        {
          "internalType": "string",
          "name": "",
          "type": "string"
        }
      ],
      "payable": false,
      "stateMutability": "view",
      "type": "function"
    },
    {
      "constant": true,
      "inputs": [],
      "name": "standard",
      "outputs": [
        {
          "internalType": "string",
          "name": "",
          "type": "string"
        }
      ],
      "payable": false,
      "stateMutability": "view",
      "type": "function"
    },
    {
      "constant": true,
      "inputs": [],
      "name": "symbol",
      "outputs": [
        {
          "internalType": "string",
          "name": "",
          "type": "string"
        }
      ],
      "payable": false,
      "stateMutability": "view",
      "type": "function"
    },
    {
      "constant": true,
      "inputs": [],
      "name": "totalSupply",
      "outputs": [
        {
          "internalType": "uint256",
          "name": "",
          "type": "uint256"
        }
      ],
      "payable": false,
      "stateMutability": "view",
      "type": "function"
    }
  ],
  "bytecode": "0x608060405234801561001057600080fd5b506040516106ae3803806106ae8339818101604052602081101561003357600080fd5b810190808051906020019092919050505080600160003373ffffffffffffffffffffffffffffffffffffffff1673ffffffffffffffffffffffffffffffffffffffff168152602001908152602001600020819055506040518060400160405280600b81526020017f4c756f6e6720546f6b656e000000000000000000000000000000000000000000815250600290805190602001906100d3929190610172565b506040518060400160405280600381526020017f4c544300000000000000000000000000000000000000000000000000000000008152506003908051906020019061011f929190610172565b506040518060400160405280601981526020017f4c756f6e6720546f6b656e207374616e646172642076312e30000000000000008152506004908051906020019061016b929190610172565b5050610217565b828054600181600116156101000203166002900490600052602060002090601f016020900481019282601f106101b357805160ff19168380011785556101e1565b828001600101855582156101e1579182015b828111156101e05782518255916020019190600101906101c5565b5b5090506101ee91906101f2565b5090565b61021491905b808211156102105760008160009055506001016101f8565b5090565b90565b610488806102266000396000f3fe608060405234801561001057600080fd5b50600436106100575760003560e01c806306fdde031461005c57806318160ddd146100df5780635a3b7e42146100fd57806370a082311461018057806395d89b41146101d8575b600080fd5b61006461025b565b6040518080602001828103825283818151815260200191508051906020019080838360005b838110156100a4578082015181840152602081019050610089565b50505050905090810190601f1680156100d15780820380516001836020036101000a031916815260200191505b509250505060405180910390f35b6100e76102f9565b6040518082815260200191505060405180910390f35b6101056102ff565b6040518080602001828103825283818151815260200191508051906020019080838360005b8381101561014557808201518184015260208101905061012a565b50505050905090810190601f1680156101725780820380516001836020036101000a031916815260200191505b509250505060405180910390f35b6101c26004803603602081101561019657600080fd5b81019080803573ffffffffffffffffffffffffffffffffffffffff16906020019092919050505061039d565b6040518082815260200191505060405180910390f35b6101e06103b5565b6040518080602001828103825283818151815260200191508051906020019080838360005b83811015610220578082015181840152602081019050610205565b50505050905090810190601f16801561024d5780820380516001836020036101000a031916815260200191505b509250505060405180910390f35b60028054600181600116156101000203166002900480601f0160208091040260200160405190810160405280929190818152602001828054600181600116156101000203166002900480156102f15780601f106102c6576101008083540402835291602001916102f1565b820191906000526020600020905b8154815290600101906020018083116102d457829003601f168201915b505050505081565b60005481565b60048054600181600116156101000203166002900480601f0160208091040260200160405190810160405280929190818152602001828054600181600116156101000203166002900480156103955780601f1061036a57610100808354040283529160200191610395565b820191906000526020600020905b81548152906001019060200180831161037857829003601f168201915b505050505081565b60016020528060005260406000206000915090505481565b60038054600181600116156101000203166002900480601f01602080910402602001604051908101604052809291908181526020018280546001816001161561010002031660029004801561044b5780601f106104205761010080835404028352916020019161044b565b820191906000526020600020905b81548152906001019060200180831161042e57829003601f168201915b50505050508156fea265627a7a723158206b205be174ca77a651f6ca2f026376ff437873a2bd73f48391bc1051797abab064736f6c63430005100032",
  "source": "pragma solidity >=0.4.22 <0.8.0;\r\n\r\ncontract DappToken{\r\n\tuint256 public totalSupply;\r\n\tmapping(address => uint256) public balanceOf;\r\n\t//name of token\r\n\tstring public name;\r\n\t//symbol of token\r\n\tstring public symbol;\r\n\t//standard of token\r\n\tstring public standard;\r\n\r\n\t//constructor\r\n\t//set total number of tokens\r\n\t//read the total number of tokens\r\n\tconstructor(uint256 _initSupply) public{\r\n\t\t//balanceOf[0] is the balance of the admin\r\n\t\tbalanceOf[msg.sender] = _initSupply;\r\n\t\tname = 'Luong Token';\r\n\t\tsymbol = 'LTC';\r\n\t\tstandard = 'Luong Token standard v1.0';\r\n\t}\r\n\r\n\t// function getTotalSupply() public returns (uint256){\r\n\t// \treturn totalSupply;\r\n\t// }\r\n\r\n}",
  "sourcePath": "/home/shawn/token_sale/contracts/DappToken.sol",
  "compiler": {
    "name": "solc",
    "version": "0.5.16+commit.9c3226ce.Emscripten.clang"
  },
  "schemaVersion": "3.2.4",
  "updatedAt": "2020-09-10T08:56:46.536Z",
  "networkType": "ethereum",
  "devdoc": {
    "methods": {}
  },
  "userdoc": {
    "methods": {}
  }
}