{
  "contractName": "DappToken",
  "abi": [
    {
      "inputs": [],
      "payable": false,
      "stateMutability": "nonpayable",
      "type": "constructor"
    },
    {
      "constant": true,
      "inputs": [],
      "name": "totalSupply",
      "outputs": [
        {
          "internalType": "uint256",
          "name": "",
          "type": "uint256"
        }
      ],
      "payable": false,
      "stateMutability": "view",
      "type": "function"
    }
  ],
  "bytecode": "0x6080604052348015600f57600080fd5b50620f42406000819055506084806100286000396000f3fe6080604052348015600f57600080fd5b506004361060285760003560e01c806318160ddd14602d575b600080fd5b60336049565b6040518082815260200191505060405180910390f35b6000548156fea265627a7a723158209f831f298efc54c7ea0c222827ec3a4cb8922d540e773ee0bddfe01930f062ec64736f6c63430005100032",
  "source": "pragma solidity >=0.4.22 <0.8.0;\r\n\r\ncontract DappToken{\r\n\tuint256 public totalSupply;\r\n\t//constructor\r\n\t//set total number of tokens\r\n\t//read the total number of tokens\r\n\tconstructor() public{\r\n\t\ttotalSupply = 1000000;\r\n\t}\r\n\r\n\t// function getTotalSupply() public returns (uint256){\r\n\t// \treturn totalSupply;\r\n\t// }\r\n\r\n}",
  "sourcePath": "/home/shawn/token_sale/contracts/DappToken.sol",
  "compiler": {
    "name": "solc",
    "version": "0.5.16+commit.9c3226ce.Emscripten.clang"
  },
  "schemaVersion": "3.2.4",
  "updatedAt": "2020-09-10T04:56:46.667Z",
  "networkType": "ethereum",
  "devdoc": {
    "methods": {}
  },
  "userdoc": {
    "methods": {}
  }
}